{
    "abi": [
        {
            "type": "constructor",
            "inputs": [],
            "stateMutability": "nonpayable"
        },
        {
            "type": "function",
            "name": "abilities",
            "inputs": [
                {
                    "name": "",
                    "type": "uint256",
                    "internalType": "uint256"
                }
            ],
            "outputs": [
                {
                    "name": "",
                    "type": "uint256",
                    "internalType": "uint256"
                }
            ],
            "stateMutability": "view"
        },
        {
            "type": "function",
            "name": "abilityCounter",
            "inputs": [],
            "outputs": [
                {
                    "name": "",
                    "type": "uint256",
                    "internalType": "uint256"
                }
            ],
            "stateMutability": "view"
        },
        {
            "type": "function",
            "name": "characterAbilities",
            "inputs": [
                {
                    "name": "",
                    "type": "uint256",
                    "internalType": "uint256"
                },
                {
                    "name": "",
                    "type": "uint256",
                    "internalType": "uint256"
                }
            ],
            "outputs": [
                {
                    "name": "",
                    "type": "uint256",
                    "internalType": "uint256"
                }
            ],
            "stateMutability": "view"
        },
        {
            "type": "function",
            "name": "characterCounter",
            "inputs": [],
            "outputs": [
                {
                    "name": "",
                    "type": "uint256",
                    "internalType": "uint256"
                }
            ],
            "stateMutability": "view"
        },
        {
            "type": "function",
            "name": "cumulativeResourceCollectedPerEpoch",
            "inputs": [
                {
                    "name": "",
                    "type": "uint256",
                    "internalType": "uint256"
                },
                {
                    "name": "",
                    "type": "address",
                    "internalType": "address"
                }
            ],
            "outputs": [
                {
                    "name": "",
                    "type": "uint256",
                    "internalType": "uint256"
                }
            ],
            "stateMutability": "view"
        },
        {
            "type": "function",
            "name": "epoch",
            "inputs": [],
            "outputs": [
                {
                    "name": "",
                    "type": "uint256",
                    "internalType": "uint256"
                }
            ],
            "stateMutability": "view"
        },
        {
            "type": "function",
            "name": "getLevelUpCost",
            "inputs": [
                {
                    "name": "ability",
                    "type": "uint256",
                    "internalType": "uint256"
                },
                {
                    "name": "resource",
                    "type": "uint256",
                    "internalType": "uint256"
                }
            ],
            "outputs": [
                {
                    "name": "",
                    "type": "uint256",
                    "internalType": "uint256"
                }
            ],
            "stateMutability": "view"
        },
        {
            "type": "function",
            "name": "globalPopulation",
            "inputs": [],
            "outputs": [
                {
                    "name": "",
                    "type": "uint256",
                    "internalType": "uint256"
                }
            ],
            "stateMutability": "view"
        },
        {
            "type": "function",
            "name": "increaseEpoch",
            "inputs": [],
            "outputs": [],
            "stateMutability": "nonpayable"
        },
        {
            "type": "function",
            "name": "lastEpochTimestamp",
            "inputs": [],
            "outputs": [
                {
                    "name": "",
                    "type": "uint256",
                    "internalType": "uint256"
                }
            ],
            "stateMutability": "view"
        },
        {
            "type": "function",
            "name": "userAbilities",
            "inputs": [
                {
                    "name": "",
                    "type": "address",
                    "internalType": "address"
                },
                {
                    "name": "",
                    "type": "uint256",
                    "internalType": "uint256"
                }
            ],
            "outputs": [
                {
                    "name": "",
                    "type": "uint256",
                    "internalType": "uint256"
                }
            ],
            "stateMutability": "view"
        },
        {
            "type": "function",
            "name": "userClaimRewards",
            "inputs": [],
            "outputs": [],
            "stateMutability": "nonpayable"
        },
        {
            "type": "function",
            "name": "userCurrentWorld",
            "inputs": [
                {
                    "name": "",
                    "type": "address",
                    "internalType": "address"
                }
            ],
            "outputs": [
                {
                    "name": "",
                    "type": "uint256",
                    "internalType": "uint256"
                }
            ],
            "stateMutability": "view"
        },
        {
            "type": "function",
            "name": "userJoinWorld",
            "inputs": [
                {
                    "name": "world",
                    "type": "uint256",
                    "internalType": "uint256"
                },
                {
                    "name": "character",
                    "type": "uint256",
                    "internalType": "uint256"
                }
            ],
            "outputs": [],
            "stateMutability": "nonpayable"
        },
        {
            "type": "function",
            "name": "userLastEpochClaimed",
            "inputs": [
                {
                    "name": "",
                    "type": "address",
                    "internalType": "address"
                }
            ],
            "outputs": [
                {
                    "name": "",
                    "type": "uint256",
                    "internalType": "uint256"
                }
            ],
            "stateMutability": "view"
        },
        {
            "type": "function",
            "name": "userLevelUpAbility",
            "inputs": [
                {
                    "name": "ability",
                    "type": "uint256",
                    "internalType": "uint256"
                }
            ],
            "outputs": [],
            "stateMutability": "nonpayable"
        },
        {
            "type": "function",
            "name": "userMoveWorld",
            "inputs": [
                {
                    "name": "world",
                    "type": "uint256",
                    "internalType": "uint256"
                }
            ],
            "outputs": [],
            "stateMutability": "nonpayable"
        },
        {
            "type": "function",
            "name": "worldCounter",
            "inputs": [],
            "outputs": [
                {
                    "name": "",
                    "type": "uint256",
                    "internalType": "uint256"
                }
            ],
            "stateMutability": "view"
        },
        {
            "type": "function",
            "name": "worldPopulation",
            "inputs": [
                {
                    "name": "",
                    "type": "uint256",
                    "internalType": "uint256"
                }
            ],
            "outputs": [
                {
                    "name": "",
                    "type": "uint256",
                    "internalType": "uint256"
                }
            ],
            "stateMutability": "view"
        },
        {
            "type": "function",
            "name": "worldToTokenResource",
            "inputs": [
                {
                    "name": "",
                    "type": "uint256",
                    "internalType": "uint256"
                }
            ],
            "outputs": [
                {
                    "name": "",
                    "type": "address",
                    "internalType": "address"
                }
            ],
            "stateMutability": "view"
        },
        {
            "type": "function",
            "name": "worlds",
            "inputs": [
                {
                    "name": "",
                    "type": "uint256",
                    "internalType": "uint256"
                }
            ],
            "outputs": [
                {
                    "name": "",
                    "type": "uint256",
                    "internalType": "uint256"
                }
            ],
            "stateMutability": "view"
        },
        {
            "type": "event",
            "name": "AbilityDeployed",
            "inputs": [
                {
                    "name": "AbilityId",
                    "type": "uint256",
                    "indexed": true,
                    "internalType": "uint256"
                },
                {
                    "name": "name",
                    "type": "string",
                    "indexed": false,
                    "internalType": "string"
                }
            ],
            "anonymous": false
        },
        {
            "type": "event",
            "name": "EpochIncreased",
            "inputs": [
                {
                    "name": "newEpoch",
                    "type": "uint256",
                    "indexed": false,
                    "internalType": "uint256"
                }
            ],
            "anonymous": false
        },
        {
            "type": "event",
            "name": "UserClaimedRewards",
            "inputs": [
                {
                    "name": "user",
                    "type": "address",
                    "indexed": true,
                    "internalType": "address"
                },
                {
                    "name": "epoch",
                    "type": "uint256",
                    "indexed": false,
                    "internalType": "uint256"
                },
                {
                    "name": "resourceAddress",
                    "type": "address",
                    "indexed": false,
                    "internalType": "address"
                },
                {
                    "name": "reward",
                    "type": "uint256",
                    "indexed": false,
                    "internalType": "uint256"
                }
            ],
            "anonymous": false
        },
        {
            "type": "event",
            "name": "UserJoinedWorld",
            "inputs": [
                {
                    "name": "user",
                    "type": "address",
                    "indexed": true,
                    "internalType": "address"
                },
                {
                    "name": "world",
                    "type": "uint256",
                    "indexed": false,
                    "internalType": "uint256"
                }
            ],
            "anonymous": false
        },
        {
            "type": "event",
            "name": "UserMovedWorld",
            "inputs": [
                {
                    "name": "user",
                    "type": "address",
                    "indexed": true,
                    "internalType": "address"
                },
                {
                    "name": "fromWorld",
                    "type": "uint256",
                    "indexed": false,
                    "internalType": "uint256"
                },
                {
                    "name": "toWorld",
                    "type": "uint256",
                    "indexed": false,
                    "internalType": "uint256"
                }
            ],
            "anonymous": false
        },
        {
            "type": "event",
            "name": "WorldDeployed",
            "inputs": [
                {
                    "name": "worldId",
                    "type": "uint256",
                    "indexed": true,
                    "internalType": "uint256"
                },
                {
                    "name": "tokenResource",
                    "type": "address",
                    "indexed": false,
                    "internalType": "address"
                },
                {
                    "name": "name",
                    "type": "string",
                    "indexed": false,
                    "internalType": "string"
                },
                {
                    "name": "symbol",
                    "type": "string",
                    "indexed": false,
                    "internalType": "string"
                }
            ],
            "anonymous": false
        }
    ],
    "bytecode": {
        "object": "0x60806040523480156200001157600080fd5b506200005e6040518060400160405280600681526020016552756269657360d01b815250604051806040016040528060048152602001635255425960e01b8152506200058460201b60201c565b620000ab60405180604001604052806006815260200165506561726c7360d01b81525060405180604001604052806005815260200164141150549360da1b8152506200058460201b60201c565b620000f960405180604001604052806006815260200165263ab6b132b960d11b81525060405180604001604052806006815260200165262aa6a122a960d11b8152506200058460201b60201c565b6040805180820190915260088152670a6e8e4cadccee8d60c31b602082015262000123906200067f565b604080518082019091526009815268125b9d195b1b1958dd60ba1b60208201526200014e906200067f565b6040805180820190915260078152664167696c69747960c81b602082015262000177906200067f565b6040805180820190915260078152665374616d696e6160c81b6020820152620001a0906200067f565b600c7f5c6647c14feacfa558b144e0a3714011f5bfab18700af5988f14b94f5793ab8881905560067f196fdb930b4456ea6dadc79b9f84c20035d97eaac4e59700a99b434bd561d17681905560147f5e51b4c08cea8fdfc0ab2d023f25a6c24c4e5ebf4f0ff34e31ce5b81ca18913981905560046000819052600a7f7316f1ebc93d44d2bcfb569d2fb2a0d28f8b9aef77c3a44420b55e0411b96b0b8190557f940bdfffc386637f3850e9a7633ff77a8eeeeaf0803c9df08029cdc08acce78183905560087ff5e58cebd31d4d2e65ad90ac71c97872398cdc238ffa3ac95b413e5c2c8c675c8190557f4a6c340b910b5765ff9a5e9bbefeb91ac003b758fcf558b82205d8b89326d4fc557f9840dac7d212bdf92d60395f3766101b45fec5f9cb32d5e95db990a6f9f2095c85905560057f094a6beb377bc4c45194f9c35e8229638e95f82045544c532230e9967b641ada8190557fb66a0afb3da3029637fc6b37c8f475732b30ef3e3fa1c0945228ce2c1a6637a0939093557f4b071aa4f99ccd0ba6e80d9f0d5c65630d63ac2008c526a5e04624125056e8f78590557f4ef912b048340ac251c9703f2e327972b95df9dfa0fc1b1f8a9bbe65a67e8f3b81905560117f3fcdc77d9530d42efca2106d3d77cb49ccce7bccd50e52e9990f5386c8f9502755600f7f5dd2046b4da83d95633a0986a94d1900bb159bb8dc32c4f8b1784d650d38d1bb8190557ffa41dd3c4e79776c422a6d3fdc462d54114621ea3562e4d866e48fd11a9afc3a8490557f5e7582666be0f56ae926ecb26b34ee44c3655444b9c9c9f101e369cd530d49f28290557fca4460c21ff4a08fd1e2e82a98678edeacec5b1612da085ae342c3862570f8118290557f93fecdcb981df72b8668637c6cb45f17167efa160cd2f4e21c13f6b8d57a460f8190557f1ee498d7bea87c28c0059d80955eddfa844f36ae8e93acffb84cfc437971b047919091557fc844bb559864d9cd45643f9d76381737d41e0724b61c858498fb0270ac04cf1b8590557f10d9dd018e4cae503383c9f804c1c1603ada5856ee7894375d9b97cd8c8b27db6020527fbf2c0be125afd2da2487c398044b29850a3e87579aa8783eb138f379fdb94f3c929092557f339c711e46fe8572985df2c991d2c37511c7c71be417577233ee03126d4da979939093557f79a23afef56f8a36ca443a121ee20d42f621e9427ca5f2f7fb26de93fb7ed2f08190557f265c5e3b3fee3b643cb63d2f5ad7a581a6acdcba3435ab05ce401c7624a345b55590554260018190556200055090610e109062000719565b6001600082825462000563919062000752565b909155505060008054908062000579836200076e565b919050555062000864565b6002805490600062000596836200076e565b919050555060008282604051620005ad906200070b565b620005ba929190620007d2565b604051809103906000f080158015620005d7573d6000803e3d6000fd5b50600280546000908152600b602052604080822080546001600160a01b0319166001600160a01b0386161790559154600d805460018101825592527fd7b6990105719101dabeb77144f2a3385c8033acd3af97e9423a695e81ad1eb59091018190559051919250907f7415eae22d90456e6707424898fb4fabeb32f8c2dc22613bd5ed04a4561e326290620006729084908790879062000804565b60405180910390a2505050565b6003805490600062000691836200076e565b9091555050600354600e80546001810182556000919091527fbb7b4a454dc3493923482f07822329ed19e8244eff582cc204f8554c3620c3fd018190556040517f3209b63fd6d487709de986681c492bc75f08e4ea912b5400df6e8080b75968ea906200070090849062000848565b60405180910390a250565b6113db8062001ad583390190565b6000826200073757634e487b7160e01b600052601260045260246000fd5b500690565b634e487b7160e01b600052601160045260246000fd5b818103818111156200076857620007686200073c565b92915050565b6000600182016200078357620007836200073c565b5060010190565b6000815180845260005b81811015620007b25760208185018101518683018201520162000794565b506000602082860101526020601f19601f83011685010191505092915050565b604081526000620007e760408301856200078a565b8281036020840152620007fb81856200078a565b95945050505050565b6001600160a01b03841681526060602082018190526000906200082a908301856200078a565b82810360408401526200083e81856200078a565b9695505050505050565b6020815260006200085d60208301846200078a565b9392505050565b61126180620008746000396000f3fe608060405234801561001057600080fd5b50600436106101775760003560e01c80637f08076a116100d8578063cae0d3351161008c578063ee0b4d9911610066578063ee0b4d9914610326578063f4fc413614610351578063f64fc6471461037c57600080fd5b8063cae0d3351461028d578063d7c6ec0f146102a0578063e8a618f5146102fb57600080fd5b806387d5f450116100bd57806387d5f45014610274578063900cf0cf1461027c578063b00835ed1461028557600080fd5b80637f08076a1461025857806385dfaf0c1461026157600080fd5b80633a9de1bd1161012f57806360d190a61161011457806360d190a61461022657806362433e7d1461022f5780637c89b6951461024f57600080fd5b80633a9de1bd146101f35780634495fe521461021357600080fd5b806324df41df1161016057806324df41df146101c257806332fcb847146101cb5780633a1956ce146101e057600080fd5b806313e02d511461017c5780631d1cc4a0146101af575b600080fd5b61019c61018a366004611026565b600c6020526000908152604090205481565b6040519081526020015b60405180910390f35b61019c6101bd36600461103f565b610385565b61019c60025481565b6101de6101d9366004611026565b610469565b005b61019c6101ee366004611026565b610601565b61019c61020136600461108a565b60076020526000908152604090205481565b6101de61022136600461103f565b610622565b61019c60035481565b61019c61023d36600461108a565b60086020526000908152604090205481565b61019c60045481565b61019c60055481565b6101de61026f366004611026565b610987565b6101de610aec565b61019c60005481565b6101de610c90565b61019c61029b366004611026565b610eff565b6102d66102ae366004611026565b600b6020526000908152604090205473ffffffffffffffffffffffffffffffffffffffff1681565b60405173ffffffffffffffffffffffffffffffffffffffff90911681526020016101a6565b61019c61030936600461103f565b600a60209081526000928352604080842090915290825290205481565b61019c6103343660046110ac565b600660209081526000928352604080842090915290825290205481565b61019c61035f3660046110d8565b600960209081526000928352604080842090915290825290205481565b61019c60015481565b33600090815260096020908152604080832085845290915281205481906103b490674563918244f40000611131565b336000818152600960209081526040808320898452825280832054905160609490941b7fffffffffffffffffffffffffffffffffffffffff000000000000000000000000169184019190915260348301879052605483015291925082906074016040516020818303038152906040528051906020012060001c6104379190611177565b905060018082161480156104595761044f828461118b565b9350505050610463565b61044f828461119e565b92915050565b80806000036104d9576040517f08c379a000000000000000000000000000000000000000000000000000000000815260206004820152601d60248201527f43616e6e6f74206a6f696e20746865203020737461727420776f726c6400000060448201526064015b60405180910390fd5b600254811115610545576040517f08c379a000000000000000000000000000000000000000000000000000000000815260206004820152601560248201527f576f726c6420646f6573206e6f742065786973742e000000000000000000000060448201526064016104d0565b61054d610aec565b33600090815260076020908152604080832054808452600c909252822080549192610577836111b1565b9091555050336000908152600760209081526040808320869055858352600c90915281208054916105a7836111e6565b9091555050600080543380835260086020908152604093849020929092558251848152918201869052917f1d65d868771437d7df4bb113d1fbcfce1a658db25e2081d26a0ae6640218430c910160405180910390a2505050565b600d818154811061061157600080fd5b600091825260209091200154905081565b61062a610c90565b8180600003610695576040517f08c379a000000000000000000000000000000000000000000000000000000000815260206004820152601d60248201527f43616e6e6f74206a6f696e20746865203020737461727420776f726c6400000060448201526064016104d0565b600254811115610701576040517f08c379a000000000000000000000000000000000000000000000000000000000815260206004820152601560248201527f576f726c6420646f6573206e6f742065786973742e000000000000000000000060448201526064016104d0565b818060000361076c576040517f08c379a000000000000000000000000000000000000000000000000000000000815260206004820152601a60248201527f436861726163746572203020646f6573206e6f7420657869737400000000000060448201526064016104d0565b6004548111156107d8576040517f08c379a000000000000000000000000000000000000000000000000000000000815260206004820152601960248201527f43686172616374657220646f6573206e6f742065786973742e0000000000000060448201526064016104d0565b336000908152600760205260409020541561084f576040517f08c379a000000000000000000000000000000000000000000000000000000000815260206004820152601360248201527f5573657220616c7265616479206a6f696e65640000000000000000000000000060448201526064016104d0565b336000908152600760209081526040808320879055868352600c909152812080549161087a836111e6565b909155505060008054338252600860205260409091205560015b60035481116108dd576000848152600a602090815260408083208484528252808320543384526009835281842085855290925290912055806108d5816111e6565b915050610894565b5060015b6002548111610935576000818152600b60205260409020546109239073ffffffffffffffffffffffffffffffffffffffff163368056bc75e2d63100000610f0f565b8061092d816111e6565b9150506108e1565b5060058054906000610946836111e6565b909155505060405184815233907fb8b476856add64b20ecb77f517d26d718caac1b1e98558bd06aacba30ff0f48e906020015b60405180910390a250505050565b61098f610aec565b80806000036109fa576040517f08c379a000000000000000000000000000000000000000000000000000000000815260206004820152601960248201527f4162696c697479203020646f6573206e6f742065786973742e0000000000000060448201526064016104d0565b600354811115610a66576040517f08c379a000000000000000000000000000000000000000000000000000000000815260206004820152601760248201527f4162696c69747920646f6573206e6f742065786973742e00000000000000000060448201526064016104d0565b60015b6002548111610abc576000818152600b6020526040902054610aaa9073ffffffffffffffffffffffffffffffffffffffff16610aa58584610385565b610f9c565b80610ab4816111e6565b915050610a69565b503360009081526009602090815260408083208584529091528120805491610ae3836111e6565b91905055505050565b610af4610c90565b336000818152600760205260408120549003610b6c576040517f08c379a000000000000000000000000000000000000000000000000000000000815260206004820152601360248201527f5573657220646f6573206e6f742065786973740000000000000000000000000060448201526064016104d0565b336000908152600860205260408120549054811015610c8c57600c81600054610b95919061119e565b1115610bad57600c600054610baa919061119e565b90505b336000908152600760209081526040808320548352600b825280832054848452600680845282852073ffffffffffffffffffffffffffffffffffffffff909216808652918452828520548554865290845282852082865290935290832054909291610c179161119e565b9050610c24823383610f0f565b600080543380835260086020908152604093849020839055835192835273ffffffffffffffffffffffffffffffffffffffff8616908301529181018390527f67254f5b21676b383a6d0307e9d72c92b7dbdf65bdb93d0e5e977b848917e41490606001610979565b5050565b600154610c9f90610e1061118b565b4210610efd57426001819055610cb890610e1090611177565b60016000828254610cc9919061119e565b9091555050600080549080610cdd836111e6565b919050555060005b600d54811015610ec0576000600d8281548110610d0457610d0461121e565b60009182526020808320909101546040805142938101939093527fffffffffffffffffffffffffffffffffffffffff0000000000000000000000003360601b16908301524460548301526074820185905292506009906094016040516020818303038152906040528051906020012060001c610d809190611177565b610d8b90600161118b565b9050600060025482600554610da09190611131565b610db39068056bc75e2d63100000611131565b610dbd919061124d565b6000848152600b6020908152604080832054600c90925282205492935073ffffffffffffffffffffffffffffffffffffffff169190819003610dfd575060015b610e07818461124d565b600660006001600054610e1a919061119e565b815260200190815260200160002060008473ffffffffffffffffffffffffffffffffffffffff1673ffffffffffffffffffffffffffffffffffffffff16815260200190815260200160002054610e70919061118b565b60008054815260066020908152604080832073ffffffffffffffffffffffffffffffffffffffff9096168352949052929092209190915550839250610eb891508290506111e6565b915050610ce5565b507f1078209d72d13a12719f5d47ed2b10c66d5a715b483655e70b3b7498c60a0aec600054604051610ef491815260200190565b60405180910390a15b565b600e818154811061061157600080fd5b6040517f40c10f1900000000000000000000000000000000000000000000000000000000815273ffffffffffffffffffffffffffffffffffffffff8381166004830152602482018390528416906340c10f1990604401600060405180830381600087803b158015610f7f57600080fd5b505af1158015610f93573d6000803e3d6000fd5b50505050505050565b6040517f79cc67900000000000000000000000000000000000000000000000000000000081523360048201526024810182905273ffffffffffffffffffffffffffffffffffffffff8316906379cc679090604401600060405180830381600087803b15801561100a57600080fd5b505af115801561101e573d6000803e3d6000fd5b505050505050565b60006020828403121561103857600080fd5b5035919050565b6000806040838503121561105257600080fd5b50508035926020909101359150565b803573ffffffffffffffffffffffffffffffffffffffff8116811461108557600080fd5b919050565b60006020828403121561109c57600080fd5b6110a582611061565b9392505050565b600080604083850312156110bf57600080fd5b823591506110cf60208401611061565b90509250929050565b600080604083850312156110eb57600080fd5b6110f483611061565b946020939093013593505050565b7f4e487b7100000000000000000000000000000000000000000000000000000000600052601160045260246000fd5b808202811582820484141761046357610463611102565b7f4e487b7100000000000000000000000000000000000000000000000000000000600052601260045260246000fd5b60008261118657611186611148565b500690565b8082018082111561046357610463611102565b8181038181111561046357610463611102565b6000816111c0576111c0611102565b507fffffffffffffffffffffffffffffffffffffffffffffffffffffffffffffffff0190565b60007fffffffffffffffffffffffffffffffffffffffffffffffffffffffffffffffff820361121757611217611102565b5060010190565b7f4e487b7100000000000000000000000000000000000000000000000000000000600052603260045260246000fd5b60008261125c5761125c611148565b5004905660806040523480156200001157600080fd5b50604051620013db380380620013db833981016040819052620000349162000193565b818160036200004483826200028c565b5060046200005382826200028c565b505050620000706200006a6200007860201b60201c565b6200007c565b505062000358565b3390565b600580546001600160a01b038381166001600160a01b0319831681179093556040519116919082907f8be0079c531659141344cd1fd0a4f28419497f9722a3daafe3b4186f6b6457e090600090a35050565b634e487b7160e01b600052604160045260246000fd5b600082601f830112620000f657600080fd5b81516001600160401b0380821115620001135762000113620000ce565b604051601f8301601f19908116603f011681019082821181831017156200013e576200013e620000ce565b816040528381526020925086838588010111156200015b57600080fd5b600091505b838210156200017f578582018301518183018401529082019062000160565b600093810190920192909252949350505050565b60008060408385031215620001a757600080fd5b82516001600160401b0380821115620001bf57600080fd5b620001cd86838701620000e4565b93506020850151915080821115620001e457600080fd5b50620001f385828601620000e4565b9150509250929050565b600181811c908216806200021257607f821691505b6020821081036200023357634e487b7160e01b600052602260045260246000fd5b50919050565b601f8211156200028757600081815260208120601f850160051c81016020861015620002625750805b601f850160051c820191505b8181101562000283578281556001016200026e565b5050505b505050565b81516001600160401b03811115620002a857620002a8620000ce565b620002c081620002b98454620001fd565b8462000239565b602080601f831160018114620002f85760008415620002df5750858301515b600019600386901b1c1916600185901b17855562000283565b600085815260208120601f198616915b82811015620003295788860151825594840194600190910190840162000308565b5085821015620003485787850151600019600388901b60f8161c191681555b5050505050600190811b01905550565b61107380620003686000396000f3fe608060405234801561001057600080fd5b506004361061011b5760003560e01c806370a08231116100b257806395d89b4111610081578063a9059cbb11610066578063a9059cbb14610264578063dd62ed3e14610277578063f2fde38b146102bd57600080fd5b806395d89b4114610249578063a457c2d71461025157600080fd5b806370a08231146101d0578063715018a61461020657806379cc67901461020e5780638da5cb5b1461022157600080fd5b8063313ce567116100ee578063313ce56714610186578063395093511461019557806340c10f19146101a857806342966c68146101bd57600080fd5b806306fdde0314610120578063095ea7b31461013e57806318160ddd1461016157806323b872dd14610173575b600080fd5b6101286102d0565b6040516101359190610e7d565b60405180910390f35b61015161014c366004610f12565b610362565b6040519015158152602001610135565b6002545b604051908152602001610135565b610151610181366004610f3c565b61037c565b60405160128152602001610135565b6101516101a3366004610f12565b6103a0565b6101bb6101b6366004610f12565b6103ec565b005b6101bb6101cb366004610f78565b610402565b6101656101de366004610f91565b73ffffffffffffffffffffffffffffffffffffffff1660009081526020819052604090205490565b6101bb61040f565b6101bb61021c366004610f12565b610423565b60055460405173ffffffffffffffffffffffffffffffffffffffff9091168152602001610135565b610128610435565b61015161025f366004610f12565b610444565b610151610272366004610f12565b61051a565b610165610285366004610fb3565b73ffffffffffffffffffffffffffffffffffffffff918216600090815260016020908152604080832093909416825291909152205490565b6101bb6102cb366004610f91565b610528565b6060600380546102df90610fe6565b80601f016020809104026020016040519081016040528092919081815260200182805461030b90610fe6565b80156103585780601f1061032d57610100808354040283529160200191610358565b820191906000526020600020905b81548152906001019060200180831161033b57829003601f168201915b5050505050905090565b6000336103708185856105dc565b60019150505b92915050565b60003361038a858285610790565b610395858585610867565b506001949350505050565b33600081815260016020908152604080832073ffffffffffffffffffffffffffffffffffffffff8716845290915281205490919061037090829086906103e7908790611039565b6105dc565b6103f4610ad6565b6103fe8282610b57565b5050565b61040c3382610c4a565b50565b610417610ad6565b6104216000610e06565b565b61042b610ad6565b6103fe8282610c4a565b6060600480546102df90610fe6565b33600081815260016020908152604080832073ffffffffffffffffffffffffffffffffffffffff871684529091528120549091908381101561050d576040517f08c379a000000000000000000000000000000000000000000000000000000000815260206004820152602560248201527f45524332303a2064656372656173656420616c6c6f77616e63652062656c6f7760448201527f207a65726f00000000000000000000000000000000000000000000000000000060648201526084015b60405180910390fd5b61039582868684036105dc565b600033610370818585610867565b610530610ad6565b73ffffffffffffffffffffffffffffffffffffffff81166105d3576040517f08c379a000000000000000000000000000000000000000000000000000000000815260206004820152602660248201527f4f776e61626c653a206e6577206f776e657220697320746865207a65726f206160448201527f64647265737300000000000000000000000000000000000000000000000000006064820152608401610504565b61040c81610e06565b73ffffffffffffffffffffffffffffffffffffffff831661067e576040517f08c379a0000000000000000000000000000000000000000000000000000000008152602060048201526024808201527f45524332303a20617070726f76652066726f6d20746865207a65726f2061646460448201527f72657373000000000000000000000000000000000000000000000000000000006064820152608401610504565b73ffffffffffffffffffffffffffffffffffffffff8216610721576040517f08c379a000000000000000000000000000000000000000000000000000000000815260206004820152602260248201527f45524332303a20617070726f766520746f20746865207a65726f20616464726560448201527f73730000000000000000000000000000000000000000000000000000000000006064820152608401610504565b73ffffffffffffffffffffffffffffffffffffffff83811660008181526001602090815260408083209487168084529482529182902085905590518481527f8c5be1e5ebec7d5bd14f71427d1e84f3dd0314c0f7b2291e5b200ac8c7c3b92591015b60405180910390a3505050565b73ffffffffffffffffffffffffffffffffffffffff8381166000908152600160209081526040808320938616835292905220547fffffffffffffffffffffffffffffffffffffffffffffffffffffffffffffffff81146108615781811015610854576040517f08c379a000000000000000000000000000000000000000000000000000000000815260206004820152601d60248201527f45524332303a20696e73756666696369656e7420616c6c6f77616e63650000006044820152606401610504565b61086184848484036105dc565b50505050565b73ffffffffffffffffffffffffffffffffffffffff831661090a576040517f08c379a000000000000000000000000000000000000000000000000000000000815260206004820152602560248201527f45524332303a207472616e736665722066726f6d20746865207a65726f20616460448201527f64726573730000000000000000000000000000000000000000000000000000006064820152608401610504565b73ffffffffffffffffffffffffffffffffffffffff82166109ad576040517f08c379a000000000000000000000000000000000000000000000000000000000815260206004820152602360248201527f45524332303a207472616e7366657220746f20746865207a65726f206164647260448201527f65737300000000000000000000000000000000000000000000000000000000006064820152608401610504565b73ffffffffffffffffffffffffffffffffffffffff831660009081526020819052604090205481811015610a63576040517f08c379a000000000000000000000000000000000000000000000000000000000815260206004820152602660248201527f45524332303a207472616e7366657220616d6f756e742065786365656473206260448201527f616c616e636500000000000000000000000000000000000000000000000000006064820152608401610504565b73ffffffffffffffffffffffffffffffffffffffff848116600081815260208181526040808320878703905593871680835291849020805487019055925185815290927fddf252ad1be2c89b69c2b068fc378daa952ba7f163c4a11628f55a4df523b3ef910160405180910390a3610861565b60055473ffffffffffffffffffffffffffffffffffffffff163314610421576040517f08c379a000000000000000000000000000000000000000000000000000000000815260206004820181905260248201527f4f776e61626c653a2063616c6c6572206973206e6f7420746865206f776e65726044820152606401610504565b73ffffffffffffffffffffffffffffffffffffffff8216610bd4576040517f08c379a000000000000000000000000000000000000000000000000000000000815260206004820152601f60248201527f45524332303a206d696e7420746f20746865207a65726f2061646472657373006044820152606401610504565b8060026000828254610be69190611039565b909155505073ffffffffffffffffffffffffffffffffffffffff8216600081815260208181526040808320805486019055518481527fddf252ad1be2c89b69c2b068fc378daa952ba7f163c4a11628f55a4df523b3ef910160405180910390a35050565b73ffffffffffffffffffffffffffffffffffffffff8216610ced576040517f08c379a000000000000000000000000000000000000000000000000000000000815260206004820152602160248201527f45524332303a206275726e2066726f6d20746865207a65726f2061646472657360448201527f73000000000000000000000000000000000000000000000000000000000000006064820152608401610504565b73ffffffffffffffffffffffffffffffffffffffff821660009081526020819052604090205481811015610da3576040517f08c379a000000000000000000000000000000000000000000000000000000000815260206004820152602260248201527f45524332303a206275726e20616d6f756e7420657863656564732062616c616e60448201527f63650000000000000000000000000000000000000000000000000000000000006064820152608401610504565b73ffffffffffffffffffffffffffffffffffffffff83166000818152602081815260408083208686039055600280548790039055518581529192917fddf252ad1be2c89b69c2b068fc378daa952ba7f163c4a11628f55a4df523b3ef9101610783565b6005805473ffffffffffffffffffffffffffffffffffffffff8381167fffffffffffffffffffffffff0000000000000000000000000000000000000000831681179093556040519116919082907f8be0079c531659141344cd1fd0a4f28419497f9722a3daafe3b4186f6b6457e090600090a35050565b600060208083528351808285015260005b81811015610eaa57858101830151858201604001528201610e8e565b5060006040828601015260407fffffffffffffffffffffffffffffffffffffffffffffffffffffffffffffffe0601f8301168501019250505092915050565b803573ffffffffffffffffffffffffffffffffffffffff81168114610f0d57600080fd5b919050565b60008060408385031215610f2557600080fd5b610f2e83610ee9565b946020939093013593505050565b600080600060608486031215610f5157600080fd5b610f5a84610ee9565b9250610f6860208501610ee9565b9150604084013590509250925092565b600060208284031215610f8a57600080fd5b5035919050565b600060208284031215610fa357600080fd5b610fac82610ee9565b9392505050565b60008060408385031215610fc657600080fd5b610fcf83610ee9565b9150610fdd60208401610ee9565b90509250929050565b600181811c90821680610ffa57607f821691505b602082108103611033577f4e487b7100000000000000000000000000000000000000000000000000000000600052602260045260246000fd5b50919050565b80820180821115610376577f4e487b7100000000000000000000000000000000000000000000000000000000600052601160045260246000fd",
        "linkReferences": {}
    },
    "methodIdentifiers": {
        "abilities(uint256)": "cae0d335",
        "abilityCounter()": "60d190a6",
        "characterAbilities(uint256,uint256)": "e8a618f5",
        "characterCounter()": "7c89b695",
        "cumulativeResourceCollectedPerEpoch(uint256,address)": "ee0b4d99",
        "epoch()": "900cf0cf",
        "getLevelUpCost(uint256,uint256)": "1d1cc4a0",
        "globalPopulation()": "7f08076a",
        "increaseEpoch()": "b00835ed",
        "lastEpochTimestamp()": "f64fc647",
        "userAbilities(address,uint256)": "f4fc4136",
        "userClaimRewards()": "87d5f450",
        "userCurrentWorld(address)": "3a9de1bd",
        "userJoinWorld(uint256,uint256)": "4495fe52",
        "userLastEpochClaimed(address)": "62433e7d",
        "userLevelUpAbility(uint256)": "85dfaf0c",
        "userMoveWorld(uint256)": "32fcb847",
        "worldCounter()": "24df41df",
        "worldPopulation(uint256)": "13e02d51",
        "worldToTokenResource(uint256)": "d7c6ec0f",
        "worlds(uint256)": "3a1956ce"
    },
    "id": 70
}