{
    "abi": [
        {
            "type": "constructor",
            "inputs": [],
            "stateMutability": "nonpayable"
        },
        {
            "type": "function",
            "name": "_ensRegistration",
            "inputs": [
                {
                    "name": "_resolver",
                    "type": "address",
                    "internalType": "address"
                },
                {
                    "name": "_registrar",
                    "type": "address",
                    "internalType": "address"
                },
                {
                    "name": "_priceOracle",
                    "type": "address",
                    "internalType": "address"
                }
            ],
            "outputs": [],
            "stateMutability": "payable"
        },
        {
            "type": "function",
            "name": "abilities",
            "inputs": [
                {
                    "name": "",
                    "type": "uint256",
                    "internalType": "uint256"
                }
            ],
            "outputs": [
                {
                    "name": "",
                    "type": "uint256",
                    "internalType": "uint256"
                }
            ],
            "stateMutability": "view"
        },
        {
            "type": "function",
            "name": "abilityCounter",
            "inputs": [],
            "outputs": [
                {
                    "name": "",
                    "type": "uint256",
                    "internalType": "uint256"
                }
            ],
            "stateMutability": "view"
        },
        {
            "type": "function",
            "name": "characterAbilities",
            "inputs": [
                {
                    "name": "",
                    "type": "uint256",
                    "internalType": "uint256"
                },
                {
                    "name": "",
                    "type": "uint256",
                    "internalType": "uint256"
                }
            ],
            "outputs": [
                {
                    "name": "",
                    "type": "uint256",
                    "internalType": "uint256"
                }
            ],
            "stateMutability": "view"
        },
        {
            "type": "function",
            "name": "characterCounter",
            "inputs": [],
            "outputs": [
                {
                    "name": "",
                    "type": "uint256",
                    "internalType": "uint256"
                }
            ],
            "stateMutability": "view"
        },
        {
            "type": "function",
            "name": "create_pool_and_seed_pool",
            "inputs": [
                {
                    "name": "token0",
                    "type": "address",
                    "internalType": "address"
                },
                {
                    "name": "token1",
                    "type": "address",
                    "internalType": "address"
                }
            ],
            "outputs": [],
            "stateMutability": "nonpayable"
        },
        {
            "type": "function",
            "name": "cumulativeResourceCollectedPerEpoch",
            "inputs": [
                {
                    "name": "",
                    "type": "uint256",
                    "internalType": "uint256"
                },
                {
                    "name": "",
                    "type": "address",
                    "internalType": "address"
                }
            ],
            "outputs": [
                {
                    "name": "",
                    "type": "uint256",
                    "internalType": "uint256"
                }
            ],
            "stateMutability": "view"
        },
        {
            "type": "function",
            "name": "epoch",
            "inputs": [],
            "outputs": [
                {
                    "name": "",
                    "type": "uint256",
                    "internalType": "uint256"
                }
            ],
            "stateMutability": "view"
        },
        {
            "type": "function",
            "name": "getLevelUpCost",
            "inputs": [
                {
                    "name": "ability",
                    "type": "uint256",
                    "internalType": "uint256"
                },
                {
                    "name": "resource",
                    "type": "uint256",
                    "internalType": "uint256"
                },
                {
                    "name": "user",
                    "type": "address",
                    "internalType": "address"
                }
            ],
            "outputs": [
                {
                    "name": "",
                    "type": "uint256",
                    "internalType": "uint256"
                }
            ],
            "stateMutability": "view"
        },
        {
            "type": "function",
            "name": "getNamehashForForgeworldEth",
            "inputs": [],
            "outputs": [
                {
                    "name": "",
                    "type": "bytes32",
                    "internalType": "bytes32"
                }
            ],
            "stateMutability": "pure"
        },
        {
            "type": "function",
            "name": "getResources",
            "inputs": [
                {
                    "name": "person",
                    "type": "address",
                    "internalType": "address"
                }
            ],
            "outputs": [
                {
                    "name": "balances",
                    "type": "uint256[]",
                    "internalType": "uint256[]"
                }
            ],
            "stateMutability": "view"
        },
        {
            "type": "function",
            "name": "globalPopulation",
            "inputs": [],
            "outputs": [
                {
                    "name": "",
                    "type": "uint256",
                    "internalType": "uint256"
                }
            ],
            "stateMutability": "view"
        },
        {
            "type": "function",
            "name": "increaseEpoch",
            "inputs": [],
            "outputs": [],
            "stateMutability": "nonpayable"
        },
        {
            "type": "function",
            "name": "lastEpochTimestamp",
            "inputs": [],
            "outputs": [
                {
                    "name": "",
                    "type": "uint256",
                    "internalType": "uint256"
                }
            ],
            "stateMutability": "view"
        },
        {
            "type": "function",
            "name": "userAbilities",
            "inputs": [
                {
                    "name": "",
                    "type": "address",
                    "internalType": "address"
                },
                {
                    "name": "",
                    "type": "uint256",
                    "internalType": "uint256"
                }
            ],
            "outputs": [
                {
                    "name": "",
                    "type": "uint256",
                    "internalType": "uint256"
                }
            ],
            "stateMutability": "view"
        },
        {
            "type": "function",
            "name": "userCharacter",
            "inputs": [
                {
                    "name": "",
                    "type": "address",
                    "internalType": "address"
                }
            ],
            "outputs": [
                {
                    "name": "",
                    "type": "uint256",
                    "internalType": "uint256"
                }
            ],
            "stateMutability": "view"
        },
        {
            "type": "function",
            "name": "userClaimRewards",
            "inputs": [],
            "outputs": [],
            "stateMutability": "nonpayable"
        },
        {
            "type": "function",
            "name": "userCurrentWorld",
            "inputs": [
                {
                    "name": "",
                    "type": "address",
                    "internalType": "address"
                }
            ],
            "outputs": [
                {
                    "name": "",
                    "type": "uint256",
                    "internalType": "uint256"
                }
            ],
            "stateMutability": "view"
        },
        {
            "type": "function",
            "name": "userJoinWorld",
            "inputs": [
                {
                    "name": "world",
                    "type": "uint256",
                    "internalType": "uint256"
                },
                {
                    "name": "character",
                    "type": "uint256",
                    "internalType": "uint256"
                },
                {
                    "name": "name",
                    "type": "string",
                    "internalType": "string"
                }
            ],
            "outputs": [],
            "stateMutability": "nonpayable"
        },
        {
            "type": "function",
            "name": "userLastEpochClaimed",
            "inputs": [
                {
                    "name": "",
                    "type": "address",
                    "internalType": "address"
                }
            ],
            "outputs": [
                {
                    "name": "",
                    "type": "uint256",
                    "internalType": "uint256"
                }
            ],
            "stateMutability": "view"
        },
        {
            "type": "function",
            "name": "userLevelUpAbility",
            "inputs": [
                {
                    "name": "ability",
                    "type": "uint256",
                    "internalType": "uint256"
                }
            ],
            "outputs": [],
            "stateMutability": "nonpayable"
        },
        {
            "type": "function",
            "name": "userMoveWorld",
            "inputs": [
                {
                    "name": "world",
                    "type": "uint256",
                    "internalType": "uint256"
                }
            ],
            "outputs": [],
            "stateMutability": "nonpayable"
        },
        {
            "type": "function",
            "name": "worldCounter",
            "inputs": [],
            "outputs": [
                {
                    "name": "",
                    "type": "uint256",
                    "internalType": "uint256"
                }
            ],
            "stateMutability": "view"
        },
        {
            "type": "function",
            "name": "worldPopulation",
            "inputs": [
                {
                    "name": "",
                    "type": "uint256",
                    "internalType": "uint256"
                }
            ],
            "outputs": [
                {
                    "name": "",
                    "type": "uint256",
                    "internalType": "uint256"
                }
            ],
            "stateMutability": "view"
        },
        {
            "type": "function",
            "name": "worldToTokenResource",
            "inputs": [
                {
                    "name": "",
                    "type": "uint256",
                    "internalType": "uint256"
                }
            ],
            "outputs": [
                {
                    "name": "",
                    "type": "address",
                    "internalType": "address"
                }
            ],
            "stateMutability": "view"
        },
        {
            "type": "function",
            "name": "worlds",
            "inputs": [
                {
                    "name": "",
                    "type": "uint256",
                    "internalType": "uint256"
                }
            ],
            "outputs": [
                {
                    "name": "",
                    "type": "uint256",
                    "internalType": "uint256"
                }
            ],
            "stateMutability": "view"
        },
        {
            "type": "event",
            "name": "AbilityDeployed",
            "inputs": [
                {
                    "name": "AbilityId",
                    "type": "uint256",
                    "indexed": true,
                    "internalType": "uint256"
                },
                {
                    "name": "name",
                    "type": "string",
                    "indexed": false,
                    "internalType": "string"
                }
            ],
            "anonymous": false
        },
        {
            "type": "event",
            "name": "EpochIncreased",
            "inputs": [
                {
                    "name": "newEpoch",
                    "type": "uint256",
                    "indexed": false,
                    "internalType": "uint256"
                }
            ],
            "anonymous": false
        },
        {
            "type": "event",
            "name": "UserClaimedRewards",
            "inputs": [
                {
                    "name": "user",
                    "type": "address",
                    "indexed": true,
                    "internalType": "address"
                },
                {
                    "name": "epoch",
                    "type": "uint256",
                    "indexed": false,
                    "internalType": "uint256"
                },
                {
                    "name": "resourceAddress",
                    "type": "address",
                    "indexed": false,
                    "internalType": "address"
                },
                {
                    "name": "reward",
                    "type": "uint256",
                    "indexed": false,
                    "internalType": "uint256"
                }
            ],
            "anonymous": false
        },
        {
            "type": "event",
            "name": "UserJoinedWorld",
            "inputs": [
                {
                    "name": "user",
                    "type": "address",
                    "indexed": true,
                    "internalType": "address"
                },
                {
                    "name": "world",
                    "type": "uint256",
                    "indexed": false,
                    "internalType": "uint256"
                }
            ],
            "anonymous": false
        },
        {
            "type": "event",
            "name": "UserMovedWorld",
            "inputs": [
                {
                    "name": "user",
                    "type": "address",
                    "indexed": true,
                    "internalType": "address"
                },
                {
                    "name": "fromWorld",
                    "type": "uint256",
                    "indexed": false,
                    "internalType": "uint256"
                },
                {
                    "name": "toWorld",
                    "type": "uint256",
                    "indexed": false,
                    "internalType": "uint256"
                }
            ],
            "anonymous": false
        },
        {
            "type": "event",
            "name": "WorldDeployed",
            "inputs": [
                {
                    "name": "worldId",
                    "type": "uint256",
                    "indexed": true,
                    "internalType": "uint256"
                },
                {
                    "name": "tokenResource",
                    "type": "address",
                    "indexed": false,
                    "internalType": "address"
                },
                {
                    "name": "name",
                    "type": "string",
                    "indexed": false,
                    "internalType": "string"
                },
                {
                    "name": "symbol",
                    "type": "string",
                    "indexed": false,
                    "internalType": "string"
                }
            ],
            "anonymous": false
        }
    ],
    "bytecode": {
        "object": "0x6080604052601080546001600160a01b03199081166001179091556011805490911660021790553480156200003357600080fd5b50620000806040518060400160405280600681526020016552756269657360d01b815250604051806040016040528060048152602001635255425960e01b815250620005a660201b60201c565b620000cd60405180604001604052806006815260200165506561726c7360d01b81525060405180604001604052806005815260200164141150549360da1b815250620005a660201b60201c565b6200011b60405180604001604052806006815260200165263ab6b132b960d11b81525060405180604001604052806006815260200165262aa6a122a960d11b815250620005a660201b60201c565b6040805180820190915260088152670a6e8e4cadccee8d60c31b602082015262000145906200071b565b604080518082019091526009815268125b9d195b1b1958dd60ba1b602082015262000170906200071b565b6040805180820190915260078152664167696c69747960c81b602082015262000199906200071b565b6040805180820190915260078152665374616d696e6160c81b6020820152620001c2906200071b565b600c7f6bd9ce7c7c44b510ee825857e9b7d0dbc77ffc0dcbb487d9763a092e420c9a1881905560067f9df0f1130baaf9831fe002174d6189491b54897c0714e1dc58ad37f5791ffbd081905560147f19d3cb07a9c1cea912dc17ee89c172de85a15ec96c78d3cde561db07aa1f27df81905560046000819052600a7fd6b148155f961baa1c0d639f32510cf8cefd5378b485c8ad961742cab6786dd38190557f5ec873723cdc64ab6619ea2fcbca33beef9a820510f97aa9ecb9e3ff0f63885383905560087fe3cd419c16f46181c0a7877bc438ce3f487b192765ec22b80c52d31809d1fce28190557ffcde62a4496e687f8660741e11ab72fe2a47ef35b4dea356e154e311e8b3544c557f7e1a2a56f220445863c4465079e0a93a49f428fa00952eaad094b8a0e3c23ae985905560057f960add1d2a4af75b2cd16bfb54d92ee5d4c29427a1bf605fa9b667906b27d7018190557f8e106f4c38eb65eea624f910da10b45091c735ca07e08cda6448f6fc1c49ffbc939093557fa1d032b803cd9b10b293267eb3b057ea62a96b3f1ab9d21301e942218025fd128590557f44725cf061729a83e75948358a45166aa4bd00359436e5d310faf556762fc75c81905560117f2c4ff72984b96d6e24887abcd47b1c2fb2b1bd600b7f7d037d1a2ac35568baab55600f7fe5eb895a4ea86c0ec57b6fb63ac8e9db1af7016c77771a7c26358a1a6c44388b8190557fd2331b99c60acea768357a7c0d9ae5cb229ec4b64a93bfe77a7aac834d4ecdb78490557fa320cafbfd3be7916974cff44f3506db11037353f3b37b5d6e99908e95d0f47f8290557f30ec21933b7c8f5c395c4814e7a9bc38e788516a5e7bc5ff790b6cf2ffce7d4d8290557fb73b33f711dbbcb8833635a34a5b5d01609714fca378f52e8a2aba1085311e258190557f929fa5cc31996b8c445c1dd778e094b2798da2c32fe67dded6fb187cd50020ab919091557fab017938044e3b5c3f7a490e533c094ef95d480a8dfc5e31a4a1e03b689b7fa98590557f0387e9d1203691d8e3362a7e4c6723de358a4010d7f31ecbec3fbfc61d1c75fc6020527f61e42d8ef42f196a22ff1f8a969eceabcf2cb18c8f0669ea790d605f518e7fd4929092557fb674eeee23b0ce44ba78cebf3834305965bab66d03cc52f14e0fecd0c15fa21d939093557fe88593a012903eb4b85d4aa0c99928e33735a5832429dbfc92939f7fa74155a88190557f39ba47537a55601d8c9709e271caeb6eb83688f69292d7a37908f6c2f7f3dcfe5590554260018190556200057290610e1090620007b5565b60016000828254620005859190620007ee565b90915550506000805490806200059b836200080a565b919050555062000924565b60028054906000620005b8836200080a565b919050555060008282604051620005cf90620007a7565b620005dc9291906200086e565b604051809103906000f080158015620005f9573d6000803e3d6000fd5b5060115460405163095ea7b360e01b81526001600160a01b039182166004820152600019602482015291925082169063095ea7b3906044016020604051808303816000875af115801562000651573d6000803e3d6000fd5b505050506040513d601f19601f82011682018060405250810190620006779190620008a0565b50600280546000908152600c602052604080822080546001600160a01b0319166001600160a01b0386161790559154600e805460018101825592527fbb7b4a454dc3493923482f07822329ed19e8244eff582cc204f8554c3620c3fd90910181905590517f7415eae22d90456e6707424898fb4fabeb32f8c2dc22613bd5ed04a4561e3262906200070e90849087908790620008cb565b60405180910390a2505050565b600380549060006200072d836200080a565b9091555050600354600f80546001810182556000919091527f8d1108e10bcb7c27dddfc02ed9d693a074039d026cf4ea4240b40f7d581ac802018190556040517f3209b63fd6d487709de986681c492bc75f08e4ea912b5400df6e8080b75968ea906200079c9084906200090f565b60405180910390a250565b6113e18062002a0483390190565b600082620007d357634e487b7160e01b600052601260045260246000fd5b500690565b634e487b7160e01b600052601160045260246000fd5b81810381811115620008045762000804620007d8565b92915050565b6000600182016200081f576200081f620007d8565b5060010190565b6000815180845260005b818110156200084e5760208185018101518683018201520162000830565b506000602082860101526020601f19601f83011685010191505092915050565b60408152600062000883604083018562000826565b828103602084015262000897818562000826565b95945050505050565b600060208284031215620008b357600080fd5b81518015158114620008c457600080fd5b9392505050565b6001600160a01b0384168152606060208201819052600090620008f19083018562000826565b828103604084015262000905818562000826565b9695505050505050565b602081526000620008c4602083018462000826565b6120d080620009346000396000f3fe6080604052600436106101a15760003560e01c806385dfaf0c116100e1578063d7c6ec0f1161008a578063e8a618f511610064578063e8a618f5146104a4578063ee0b4d99146104dc578063f4fc413614610514578063f64fc6471461054c57600080fd5b8063d7c6ec0f146103ef578063e357157914610457578063e58293571461048457600080fd5b8063b00835ed116100bb578063b00835ed1461039a578063bcfb0df8146103af578063cae0d335146103cf57600080fd5b806385dfaf0c1461034f57806387d5f4501461036f578063900cf0cf1461038457600080fd5b80633a9de1bd1161014e57806360d190a61161012857806360d190a6146102e057806362433e7d146102f65780637c89b695146103235780637f08076a1461033957600080fd5b80633a9de1bd1461028b5780633bbd1d30146102b8578063537d4269146102cd57600080fd5b80632d981f7c1161017f5780632d981f7c1461021e57806332fcb8471461024b5780633a1956ce1461026b57600080fd5b806313e02d51146101a657806324df41df146101e65780632cfe4717146101fc575b600080fd5b3480156101b257600080fd5b506101d36101c136600461194e565b600d6020526000908152604090205481565b6040519081526020015b60405180910390f35b3480156101f257600080fd5b506101d360025481565b34801561020857600080fd5b5061021c610217366004611990565b610562565b005b34801561022a57600080fd5b506101d36102393660046119c3565b60096020526000908152604090205481565b34801561025757600080fd5b5061021c61026636600461194e565b6107ef565b34801561027757600080fd5b506101d361028636600461194e565b610987565b34801561029757600080fd5b506101d36102a63660046119c3565b60076020526000908152604090205481565b3480156102c457600080fd5b506101d36109a8565b61021c6102db3660046119de565b610aa3565b3480156102ec57600080fd5b506101d360035481565b34801561030257600080fd5b506101d36103113660046119c3565b60086020526000908152604090205481565b34801561032f57600080fd5b506101d360045481565b34801561034557600080fd5b506101d360055481565b34801561035b57600080fd5b5061021c61036a36600461194e565b610d02565b34801561037b57600080fd5b5061021c610e68565b34801561039057600080fd5b506101d360005481565b3480156103a657600080fd5b5061021c611012565b3480156103bb57600080fd5b506101d36103ca366004611a21565b611278565b3480156103db57600080fd5b506101d36103ea36600461194e565b611382565b3480156103fb57600080fd5b5061043261040a36600461194e565b600c6020526000908152604090205473ffffffffffffffffffffffffffffffffffffffff1681565b60405173ffffffffffffffffffffffffffffffffffffffff90911681526020016101dd565b34801561046357600080fd5b506104776104723660046119c3565b611392565b6040516101dd9190611a4d565b34801561049057600080fd5b5061021c61049f366004611b0f565b6114c5565b3480156104b057600080fd5b506101d36104bf366004611bd5565b600b60209081526000928352604080842090915290825290205481565b3480156104e857600080fd5b506101d36104f7366004611bf7565b600660209081526000928352604080842090915290825290205481565b34801561052057600080fd5b506101d361052f366004611c1a565b600a60209081526000928352604080842090915290825290205481565b34801561055857600080fd5b506101d360015481565b8073ffffffffffffffffffffffffffffffffffffffff168273ffffffffffffffffffffffffffffffffffffffff16111561059857905b60408051426020820152608091610bb891603c916c010000000000000000000000009160009101604080517fffffffffffffffffffffffffffffffffffffffffffffffffffffffffffffffe081840301815260a08301825273ffffffffffffffffffffffffffffffffffffffff808b168452898116602085015262ffffff881684840152600287900b6060850152888116608085015260105492517f695c5bf5000000000000000000000000000000000000000000000000000000008152919450919091169063695c5bf59061067690849087908790600401611ca8565b6020604051808303816000875af1158015610695573d6000803e3d6000fd5b505050506040513d601f19601f820116820180604052508101906106b99190611d3c565b506106d288306c7e37be2022c0914b2680000000611837565b6106ea87306c7e37be2022c0914b2680000000611837565b601154604080516060810182527ffffffffffffffffffffffffffffffffffffffffffffffffffffffffffffffc188082526103e860208084018290526b204fce5e3e25026110000000848601819052855160008152918201958690527fbec999dd00000000000000000000000000000000000000000000000000000000909552919490939273ffffffffffffffffffffffffffffffffffffffff9091169163bec999dd9161079e9188919060248101611d5f565b6020604051808303816000875af11580156107bd573d6000803e3d6000fd5b505050506040513d601f19601f820116820180604052508101906107e19190611dfb565b505050505050505050505050565b808060000361085f576040517f08c379a000000000000000000000000000000000000000000000000000000000815260206004820152601d60248201527f43616e6e6f74206a6f696e20746865203020737461727420776f726c6400000060448201526064015b60405180910390fd5b6002548111156108cb576040517f08c379a000000000000000000000000000000000000000000000000000000000815260206004820152601560248201527f576f726c6420646f6573206e6f742065786973742e00000000000000000000006044820152606401610856565b6108d3610e68565b33600090815260076020908152604080832054808452600d9092528220805491926108fd83611e43565b9091555050336000908152600760209081526040808320869055858352600d909152812080549161092d83611e78565b9091555050600080543380835260086020908152604093849020929092558251848152918201869052917f1d65d868771437d7df4bb113d1fbcfce1a658db25e2081d26a0ae6640218430c910160405180910390a2505050565b600e818154811061099757600080fd5b600091825260209091200154905081565b6040517f657468000000000000000000000000000000000000000000000000000000000060208201526000908190819060230160405160208183030381529060405280519060200120604051602001610a0b929190918252602082015260400190565b60405160208183030381529060405280519060200120905080604051602001610a57907f666f726765776f726c64000000000000000000000000000000000000000000008152600a0190565b60405160208183030381529060405280519060200120604051602001610a87929190918252602082015260400190565b6040516020818303038152906040528051906020012091505090565b60408051808201909152600a81527f666f726765776f726c640000000000000000000000000000000000000000000060208201526301e133806000858180604051908082528060200260200182016040528015610b1457816020015b6060815260200190600190039081610aff5790505b506040517f50e9a715000000000000000000000000000000000000000000000000000000008152909150600190600090819073ffffffffffffffffffffffffffffffffffffffff8a16906350e9a71590610b76908b9085908c90600401611eb0565b6040805180830381865afa158015610b92573d6000803e3d6000fd5b505050506040513d601f19601f82011682018060405250810190610bb69190611ed5565b9050600081602001518260000151610bce9190611f24565b905080471015610c60576040517f08c379a000000000000000000000000000000000000000000000000000000000815260206004820152602560248201527f496e73756666696369656e742062616c616e636520666f72207265676973747260448201527f6174696f6e0000000000000000000000000000000000000000000000000000006064820152608401610856565b6040517f74694a2b00000000000000000000000000000000000000000000000000000000815273ffffffffffffffffffffffffffffffffffffffff8c16906374694a2b908390610cc2908d9030908e908e908e908e908e908e90600401611f3d565b6000604051808303818588803b158015610cdb57600080fd5b505af1158015610cef573d6000803e3d6000fd5b5050505050505050505050505050505050565b610d0a610e68565b8080600003610d75576040517f08c379a000000000000000000000000000000000000000000000000000000000815260206004820152601960248201527f4162696c697479203020646f6573206e6f742065786973742e000000000000006044820152606401610856565b600354811115610de1576040517f08c379a000000000000000000000000000000000000000000000000000000000815260206004820152601760248201527f4162696c69747920646f6573206e6f742065786973742e0000000000000000006044820152606401610856565b60015b6002548111610e38576000818152600c6020526040902054610e269073ffffffffffffffffffffffffffffffffffffffff16610e21858433611278565b6118c4565b80610e3081611e78565b915050610de4565b50336000908152600a602090815260408083208584529091528120805491610e5f83611e78565b91905055505050565b610e70611012565b336000818152600760205260408120549003610ee8576040517f08c379a000000000000000000000000000000000000000000000000000000000815260206004820152601360248201527f5573657220646f6573206e6f74206578697374000000000000000000000000006044820152606401610856565b33600090815260086020526040812054905481101561100e57600c81600054610f119190612020565b1115610f2957600c600054610f269190612020565b90505b336000908152600760209081526040808320548352600c825280832054848452600680845282852073ffffffffffffffffffffffffffffffffffffffff909216808652918452828520548554865290845282852082865290935290832054909291610f9391612020565b9050610fa0823383611837565b600080543380835260086020908152604093849020839055835192835273ffffffffffffffffffffffffffffffffffffffff8616908301529181018390527f67254f5b21676b383a6d0307e9d72c92b7dbdf65bdb93d0e5e977b848917e4149060600160405180910390a250505b5050565b60015461102190610e10611f24565b42106112765742600181905561103a90610e1090612062565b6001600082825461104b9190612020565b909155505060008054908061105f83611e78565b919050555060005b600e54811015611239576000600e828154811061108657611086612076565b60009182526020808320909101546040805142938101939093527fffffffffffffffffffffffffffffffffffffffff0000000000000000000000003360601b16908301524460548301526074820185905292506009906094016040516020818303038152906040528051906020012060001c6111029190612062565b61110d906001611f24565b905060006002548260055461112291906120a5565b6111359068056bc75e2d631000006120a5565b61113f91906120bc565b6000848152600c6020908152604080832054600d90925282205492935073ffffffffffffffffffffffffffffffffffffffff16919081900361117f575060015b61118981846120bc565b60066000600160005461119c9190612020565b815260200190815260200160002060008473ffffffffffffffffffffffffffffffffffffffff1673ffffffffffffffffffffffffffffffffffffffff168152602001908152602001600020546111f29190611f24565b60008054815260066020908152604080832073ffffffffffffffffffffffffffffffffffffffff909616835294905292909220919091555050600190920191506110679050565b507f1078209d72d13a12719f5d47ed2b10c66d5a715b483655e70b3b7498c60a0aec60005460405161126d91815260200190565b60405180910390a15b565b73ffffffffffffffffffffffffffffffffffffffff81166000908152600a6020908152604080832086845290915281205481906112bd90674563918244f400006120a5565b73ffffffffffffffffffffffffffffffffffffffff84166000908152600a602090815260408083208984528252808320548151606089901b7fffffffffffffffffffffffffffffffffffffffff0000000000000000000000001681850152603481018a90526054808201929092528251808203909201825260740190915280519101209192509061134f908390612062565b90506001808216148015611371576113678284611f24565b935050505061137b565b6113678284612020565b9392505050565b600f818154811061099757600080fd5b606060025467ffffffffffffffff8111156113af576113af611a91565b6040519080825280602002602001820160405280156113d8578160200160208202803683370190505b50905060005b6002548110156114bf57600c60006113f7836001611f24565b8152602081019190915260409081016000205490517f70a0823100000000000000000000000000000000000000000000000000000000815273ffffffffffffffffffffffffffffffffffffffff8581166004830152909116906370a0823190602401602060405180830381865afa158015611476573d6000803e3d6000fd5b505050506040513d601f19601f8201168201806040525081019061149a9190611dfb565b8282815181106114ac576114ac612076565b60209081029190910101526001016113de565b50919050565b6114cd611012565b8280600003611538576040517f08c379a000000000000000000000000000000000000000000000000000000000815260206004820152601d60248201527f43616e6e6f74206a6f696e20746865203020737461727420776f726c640000006044820152606401610856565b6002548111156115a4576040517f08c379a000000000000000000000000000000000000000000000000000000000815260206004820152601560248201527f576f726c6420646f6573206e6f742065786973742e00000000000000000000006044820152606401610856565b828060000361160f576040517f08c379a000000000000000000000000000000000000000000000000000000000815260206004820152601a60248201527f436861726163746572203020646f6573206e6f742065786973740000000000006044820152606401610856565b60045481111561167b576040517f08c379a000000000000000000000000000000000000000000000000000000000815260206004820152601960248201527f43686172616374657220646f6573206e6f742065786973742e000000000000006044820152606401610856565b33600090815260076020526040902054156116f2576040517f08c379a000000000000000000000000000000000000000000000000000000000815260206004820152601360248201527f5573657220616c7265616479206a6f696e6564000000000000000000000000006044820152606401610856565b33600090815260076020908152604080832088905560098252808320879055878352600d909152812080549161172783611e78565b909155505060008054338252600860205260409091205560015b600354811161178a576000858152600b60209081526040808320848452825280832054338452600a8352818420858552909252909120558061178281611e78565b915050611741565b5060015b60025481116117e2576000818152600c60205260409020546117d09073ffffffffffffffffffffffffffffffffffffffff163368056bc75e2d63100000611837565b806117da81611e78565b91505061178e565b506000600580549060006117f583611e78565b909155505060405186815233907fb8b476856add64b20ecb77f517d26d718caac1b1e98558bd06aacba30ff0f48e9060200160405180910390a2505050505050565b6040517f40c10f1900000000000000000000000000000000000000000000000000000000815273ffffffffffffffffffffffffffffffffffffffff8381166004830152602482018390528416906340c10f1990604401600060405180830381600087803b1580156118a757600080fd5b505af11580156118bb573d6000803e3d6000fd5b50505050505050565b6040517f79cc67900000000000000000000000000000000000000000000000000000000081523360048201526024810182905273ffffffffffffffffffffffffffffffffffffffff8316906379cc679090604401600060405180830381600087803b15801561193257600080fd5b505af1158015611946573d6000803e3d6000fd5b505050505050565b60006020828403121561196057600080fd5b5035919050565b803573ffffffffffffffffffffffffffffffffffffffff8116811461198b57600080fd5b919050565b600080604083850312156119a357600080fd5b6119ac83611967565b91506119ba60208401611967565b90509250929050565b6000602082840312156119d557600080fd5b61137b82611967565b6000806000606084860312156119f357600080fd5b6119fc84611967565b9250611a0a60208501611967565b9150611a1860408501611967565b90509250925092565b600080600060608486031215611a3657600080fd5b8335925060208401359150611a1860408501611967565b6020808252825182820181905260009190848201906040850190845b81811015611a8557835183529284019291840191600101611a69565b50909695505050505050565b7f4e487b7100000000000000000000000000000000000000000000000000000000600052604160045260246000fd5b604051601f82017fffffffffffffffffffffffffffffffffffffffffffffffffffffffffffffffe016810167ffffffffffffffff81118282101715611b0757611b07611a91565b604052919050565b600080600060608486031215611b2457600080fd5b833592506020808501359250604085013567ffffffffffffffff80821115611b4b57600080fd5b818701915087601f830112611b5f57600080fd5b813581811115611b7157611b71611a91565b611ba1847fffffffffffffffffffffffffffffffffffffffffffffffffffffffffffffffe0601f84011601611ac0565b91508082528884828501011115611bb757600080fd5b80848401858401376000848284010152508093505050509250925092565b60008060408385031215611be857600080fd5b50508035926020909101359150565b60008060408385031215611c0a57600080fd5b823591506119ba60208401611967565b60008060408385031215611c2d57600080fd5b611c3683611967565b946020939093013593505050565b6000815180845260005b81811015611c6a57602081850181015186830182015201611c4e565b5060006020828601015260207fffffffffffffffffffffffffffffffffffffffffffffffffffffffffffffffe0601f83011685010191505092915050565b611d01818573ffffffffffffffffffffffffffffffffffffffff80825116835280602083015116602084015262ffffff6040830151166040840152606082015160020b6060840152806080830151166080840152505050565b73ffffffffffffffffffffffffffffffffffffffff831660a082015260e060c08201526000611d3360e0830184611c44565b95945050505050565b600060208284031215611d4e57600080fd5b81518060020b811461137b57600080fd5b6000610120611dbd838773ffffffffffffffffffffffffffffffffffffffff80825116835280602083015116602084015262ffffff6040830151166040840152606082015160020b6060840152806080830151166080840152505050565b845160020b60a0840152602085015160020b60c0840152604085015160e084015280610100840152611df181840185611c44565b9695505050505050565b600060208284031215611e0d57600080fd5b5051919050565b7f4e487b7100000000000000000000000000000000000000000000000000000000600052601160045260246000fd5b600081611e5257611e52611e14565b507fffffffffffffffffffffffffffffffffffffffffffffffffffffffffffffffff0190565b60007fffffffffffffffffffffffffffffffffffffffffffffffffffffffffffffffff8203611ea957611ea9611e14565b5060010190565b606081526000611ec36060830186611c44565b60208301949094525060400152919050565b600060408284031215611ee757600080fd5b6040516040810181811067ffffffffffffffff82111715611f0a57611f0a611a91565b604052825181526020928301519281019290925250919050565b80820180821115611f3757611f37611e14565b92915050565b6000610100808352611f518184018c611c44565b9050602073ffffffffffffffffffffffffffffffffffffffff808c16828601528a604086015289606086015280891660808601525083820360a08501528187518084528284019150828160051b850101838a0160005b83811015611ff3577fffffffffffffffffffffffffffffffffffffffffffffffffffffffffffffffe0878403018552611fe1838351611c44565b94860194925090850190600101611fa7565b505088151560c088015294506120099350505050565b61ffff831660e08301529998505050505050505050565b81810381811115611f3757611f37611e14565b7f4e487b7100000000000000000000000000000000000000000000000000000000600052601260045260246000fd5b60008261207157612071612033565b500690565b7f4e487b7100000000000000000000000000000000000000000000000000000000600052603260045260246000fd5b8082028115828204841417611f3757611f37611e14565b6000826120cb576120cb612033565b5004905660806040523480156200001157600080fd5b50604051620013e1380380620013e1833981016040819052620000349162000196565b8181600362000044838262000291565b50600462000053828262000291565b505050620000706200006a6200007860201b60201c565b6200007c565b50506200035d565b3390565b600580546001600160a01b038381166001600160a01b0319831681179093556040519116919082907f8be0079c531659141344cd1fd0a4f28419497f9722a3daafe3b4186f6b6457e090600090a35050565b634e487b7160e01b600052604160045260246000fd5b600082601f830112620000f657600080fd5b81516001600160401b0380821115620001135762000113620000ce565b604051601f8301601f19908116603f011681019082821181831017156200013e576200013e620000ce565b81604052838152602092508660208588010111156200015c57600080fd5b600091505b8382101562000180578582018301518183018401529082019062000161565b6000602085830101528094505050505092915050565b60008060408385031215620001aa57600080fd5b82516001600160401b0380821115620001c257600080fd5b620001d086838701620000e4565b93506020850151915080821115620001e757600080fd5b50620001f685828601620000e4565b9150509250929050565b600181811c908216806200021557607f821691505b6020821081036200023657634e487b7160e01b600052602260045260246000fd5b50919050565b601f8211156200028c576000816000526020600020601f850160051c81016020861015620002675750805b601f850160051c820191505b81811015620002885782815560010162000273565b5050505b505050565b81516001600160401b03811115620002ad57620002ad620000ce565b620002c581620002be845462000200565b846200023c565b602080601f831160018114620002fd5760008415620002e45750858301515b600019600386901b1c1916600185901b17855562000288565b600085815260208120601f198616915b828110156200032e578886015182559484019460019091019084016200030d565b50858210156200034d5787850151600019600388901b60f8161c191681555b5050505050600190811b01905550565b611074806200036d6000396000f3fe608060405234801561001057600080fd5b506004361061011b5760003560e01c806370a08231116100b257806395d89b4111610081578063a9059cbb11610066578063a9059cbb14610264578063dd62ed3e14610277578063f2fde38b146102bd57600080fd5b806395d89b4114610249578063a457c2d71461025157600080fd5b806370a08231146101d0578063715018a61461020657806379cc67901461020e5780638da5cb5b1461022157600080fd5b8063313ce567116100ee578063313ce56714610186578063395093511461019557806340c10f19146101a857806342966c68146101bd57600080fd5b806306fdde0314610120578063095ea7b31461013e57806318160ddd1461016157806323b872dd14610173575b600080fd5b6101286102d0565b6040516101359190610e7d565b60405180910390f35b61015161014c366004610f13565b610362565b6040519015158152602001610135565b6002545b604051908152602001610135565b610151610181366004610f3d565b61037c565b60405160128152602001610135565b6101516101a3366004610f13565b6103a0565b6101bb6101b6366004610f13565b6103ec565b005b6101bb6101cb366004610f79565b610402565b6101656101de366004610f92565b73ffffffffffffffffffffffffffffffffffffffff1660009081526020819052604090205490565b6101bb61040f565b6101bb61021c366004610f13565b610423565b60055460405173ffffffffffffffffffffffffffffffffffffffff9091168152602001610135565b610128610435565b61015161025f366004610f13565b610444565b610151610272366004610f13565b61051a565b610165610285366004610fb4565b73ffffffffffffffffffffffffffffffffffffffff918216600090815260016020908152604080832093909416825291909152205490565b6101bb6102cb366004610f92565b610528565b6060600380546102df90610fe7565b80601f016020809104026020016040519081016040528092919081815260200182805461030b90610fe7565b80156103585780601f1061032d57610100808354040283529160200191610358565b820191906000526020600020905b81548152906001019060200180831161033b57829003601f168201915b5050505050905090565b6000336103708185856105dc565b60019150505b92915050565b60003361038a858285610790565b610395858585610867565b506001949350505050565b33600081815260016020908152604080832073ffffffffffffffffffffffffffffffffffffffff8716845290915281205490919061037090829086906103e790879061103a565b6105dc565b6103f4610ad6565b6103fe8282610b57565b5050565b61040c3382610c4a565b50565b610417610ad6565b6104216000610e06565b565b61042b610ad6565b6103fe8282610c4a565b6060600480546102df90610fe7565b33600081815260016020908152604080832073ffffffffffffffffffffffffffffffffffffffff871684529091528120549091908381101561050d576040517f08c379a000000000000000000000000000000000000000000000000000000000815260206004820152602560248201527f45524332303a2064656372656173656420616c6c6f77616e63652062656c6f7760448201527f207a65726f00000000000000000000000000000000000000000000000000000060648201526084015b60405180910390fd5b61039582868684036105dc565b600033610370818585610867565b610530610ad6565b73ffffffffffffffffffffffffffffffffffffffff81166105d3576040517f08c379a000000000000000000000000000000000000000000000000000000000815260206004820152602660248201527f4f776e61626c653a206e6577206f776e657220697320746865207a65726f206160448201527f64647265737300000000000000000000000000000000000000000000000000006064820152608401610504565b61040c81610e06565b73ffffffffffffffffffffffffffffffffffffffff831661067e576040517f08c379a0000000000000000000000000000000000000000000000000000000008152602060048201526024808201527f45524332303a20617070726f76652066726f6d20746865207a65726f2061646460448201527f72657373000000000000000000000000000000000000000000000000000000006064820152608401610504565b73ffffffffffffffffffffffffffffffffffffffff8216610721576040517f08c379a000000000000000000000000000000000000000000000000000000000815260206004820152602260248201527f45524332303a20617070726f766520746f20746865207a65726f20616464726560448201527f73730000000000000000000000000000000000000000000000000000000000006064820152608401610504565b73ffffffffffffffffffffffffffffffffffffffff83811660008181526001602090815260408083209487168084529482529182902085905590518481527f8c5be1e5ebec7d5bd14f71427d1e84f3dd0314c0f7b2291e5b200ac8c7c3b92591015b60405180910390a3505050565b73ffffffffffffffffffffffffffffffffffffffff8381166000908152600160209081526040808320938616835292905220547fffffffffffffffffffffffffffffffffffffffffffffffffffffffffffffffff81146108615781811015610854576040517f08c379a000000000000000000000000000000000000000000000000000000000815260206004820152601d60248201527f45524332303a20696e73756666696369656e7420616c6c6f77616e63650000006044820152606401610504565b61086184848484036105dc565b50505050565b73ffffffffffffffffffffffffffffffffffffffff831661090a576040517f08c379a000000000000000000000000000000000000000000000000000000000815260206004820152602560248201527f45524332303a207472616e736665722066726f6d20746865207a65726f20616460448201527f64726573730000000000000000000000000000000000000000000000000000006064820152608401610504565b73ffffffffffffffffffffffffffffffffffffffff82166109ad576040517f08c379a000000000000000000000000000000000000000000000000000000000815260206004820152602360248201527f45524332303a207472616e7366657220746f20746865207a65726f206164647260448201527f65737300000000000000000000000000000000000000000000000000000000006064820152608401610504565b73ffffffffffffffffffffffffffffffffffffffff831660009081526020819052604090205481811015610a63576040517f08c379a000000000000000000000000000000000000000000000000000000000815260206004820152602660248201527f45524332303a207472616e7366657220616d6f756e742065786365656473206260448201527f616c616e636500000000000000000000000000000000000000000000000000006064820152608401610504565b73ffffffffffffffffffffffffffffffffffffffff848116600081815260208181526040808320878703905593871680835291849020805487019055925185815290927fddf252ad1be2c89b69c2b068fc378daa952ba7f163c4a11628f55a4df523b3ef910160405180910390a3610861565b60055473ffffffffffffffffffffffffffffffffffffffff163314610421576040517f08c379a000000000000000000000000000000000000000000000000000000000815260206004820181905260248201527f4f776e61626c653a2063616c6c6572206973206e6f7420746865206f776e65726044820152606401610504565b73ffffffffffffffffffffffffffffffffffffffff8216610bd4576040517f08c379a000000000000000000000000000000000000000000000000000000000815260206004820152601f60248201527f45524332303a206d696e7420746f20746865207a65726f2061646472657373006044820152606401610504565b8060026000828254610be6919061103a565b909155505073ffffffffffffffffffffffffffffffffffffffff8216600081815260208181526040808320805486019055518481527fddf252ad1be2c89b69c2b068fc378daa952ba7f163c4a11628f55a4df523b3ef910160405180910390a35050565b73ffffffffffffffffffffffffffffffffffffffff8216610ced576040517f08c379a000000000000000000000000000000000000000000000000000000000815260206004820152602160248201527f45524332303a206275726e2066726f6d20746865207a65726f2061646472657360448201527f73000000000000000000000000000000000000000000000000000000000000006064820152608401610504565b73ffffffffffffffffffffffffffffffffffffffff821660009081526020819052604090205481811015610da3576040517f08c379a000000000000000000000000000000000000000000000000000000000815260206004820152602260248201527f45524332303a206275726e20616d6f756e7420657863656564732062616c616e60448201527f63650000000000000000000000000000000000000000000000000000000000006064820152608401610504565b73ffffffffffffffffffffffffffffffffffffffff83166000818152602081815260408083208686039055600280548790039055518581529192917fddf252ad1be2c89b69c2b068fc378daa952ba7f163c4a11628f55a4df523b3ef9101610783565b6005805473ffffffffffffffffffffffffffffffffffffffff8381167fffffffffffffffffffffffff0000000000000000000000000000000000000000831681179093556040519116919082907f8be0079c531659141344cd1fd0a4f28419497f9722a3daafe3b4186f6b6457e090600090a35050565b60006020808352835180602085015260005b81811015610eab57858101830151858201604001528201610e8f565b5060006040828601015260407fffffffffffffffffffffffffffffffffffffffffffffffffffffffffffffffe0601f8301168501019250505092915050565b803573ffffffffffffffffffffffffffffffffffffffff81168114610f0e57600080fd5b919050565b60008060408385031215610f2657600080fd5b610f2f83610eea565b946020939093013593505050565b600080600060608486031215610f5257600080fd5b610f5b84610eea565b9250610f6960208501610eea565b9150604084013590509250925092565b600060208284031215610f8b57600080fd5b5035919050565b600060208284031215610fa457600080fd5b610fad82610eea565b9392505050565b60008060408385031215610fc757600080fd5b610fd083610eea565b9150610fde60208401610eea565b90509250929050565b600181811c90821680610ffb57607f821691505b602082108103611034577f4e487b7100000000000000000000000000000000000000000000000000000000600052602260045260246000fd5b50919050565b80820180821115610376577f4e487b7100000000000000000000000000000000000000000000000000000000600052601160045260246000fd",
        "linkReferences": {}
    },
    "methodIdentifiers": {
        "_ensRegistration(address,address,address)": "537d4269",
        "abilities(uint256)": "cae0d335",
        "abilityCounter()": "60d190a6",
        "characterAbilities(uint256,uint256)": "e8a618f5",
        "characterCounter()": "7c89b695",
        "create_pool_and_seed_pool(address,address)": "2cfe4717",
        "cumulativeResourceCollectedPerEpoch(uint256,address)": "ee0b4d99",
        "epoch()": "900cf0cf",
        "getLevelUpCost(uint256,uint256,address)": "bcfb0df8",
        "getNamehashForForgeworldEth()": "3bbd1d30",
        "getResources(address)": "e3571579",
        "globalPopulation()": "7f08076a",
        "increaseEpoch()": "b00835ed",
        "lastEpochTimestamp()": "f64fc647",
        "userAbilities(address,uint256)": "f4fc4136",
        "userCharacter(address)": "2d981f7c",
        "userClaimRewards()": "87d5f450",
        "userCurrentWorld(address)": "3a9de1bd",
        "userJoinWorld(uint256,uint256,string)": "e5829357",
        "userLastEpochClaimed(address)": "62433e7d",
        "userLevelUpAbility(uint256)": "85dfaf0c",
        "userMoveWorld(uint256)": "32fcb847",
        "worldCounter()": "24df41df",
        "worldPopulation(uint256)": "13e02d51",
        "worldToTokenResource(uint256)": "d7c6ec0f",
        "worlds(uint256)": "3a1956ce"
    },
    "id": 105
}